{
  "contractName": "HelloEvent",
  "abi": [
    {
      "anonymous": false,
      "inputs": [
        {
          "indexed": false,
          "internalType": "uint8",
          "name": "newValue",
          "type": "uint8"
        },
        {
          "indexed": false,
          "internalType": "string",
          "name": "message",
          "type": "string"
        }
      ],
      "name": "Decreased",
      "type": "event"
    },
    {
      "anonymous": false,
      "inputs": [
        {
          "indexed": false,
          "internalType": "uint8",
          "name": "newValue",
          "type": "uint8"
        },
        {
          "indexed": false,
          "internalType": "string",
          "name": "message",
          "type": "string"
        }
      ],
      "name": "Increased",
      "type": "event"
    },
    {
      "anonymous": false,
      "inputs": [
        {
          "indexed": false,
          "internalType": "uint8",
          "name": "newValue",
          "type": "uint8"
        },
        {
          "indexed": false,
          "internalType": "string",
          "name": "message",
          "type": "string"
        }
      ],
      "name": "ValueSet",
      "type": "event"
    },
    {
      "inputs": [],
      "name": "myValue",
      "outputs": [
        {
          "internalType": "uint8",
          "name": "",
          "type": "uint8"
        }
      ],
      "stateMutability": "view",
      "type": "function"
    },
    {
      "inputs": [],
      "name": "increase",
      "outputs": [],
      "stateMutability": "nonpayable",
      "type": "function"
    },
    {
      "inputs": [],
      "name": "decrease",
      "outputs": [],
      "stateMutability": "nonpayable",
      "type": "function"
    },
    {
      "inputs": [
        {
          "internalType": "uint8",
          "name": "newValue",
          "type": "uint8"
        }
      ],
      "name": "setvalue",
      "outputs": [],
      "stateMutability": "nonpayable",
      "type": "function"
    }
  ],
  "bytecode": "0x608060405234801561001057600080fd5b506104d6806100206000396000f3fe608060405234801561001057600080fd5b506004361061004c5760003560e01c806347f1aae714610051578063d732d9551461006f578063e8927fbc14610079578063fd18e43a14610083575b600080fd5b61005961009f565b6040516100669190610227565b60405180910390f35b6100776100b0565b005b61008161012d565b005b61009d60048036038101906100989190610273565b6101aa565b005b60008054906101000a900460ff1681565b60008081819054906101000a900460ff16809291906100ce906102cf565b91906101000a81548160ff021916908360ff160217905550507f21631358afc61f309292f11fd94dfb9920e062af5a72ed779d02fc80cadaabe460008054906101000a900460ff166040516101239190610355565b60405180910390a1565b60008081819054906101000a900460ff168092919061014b90610383565b91906101000a81548160ff021916908360ff160217905550507f59144c42d01925194e77b7b7295ac04f0b740b4190cd10bb328eb8b8e0b58af660008054906101000a900460ff166040516101a091906103f8565b60405180910390a1565b806000806101000a81548160ff021916908360ff1602179055507f71fe9ce4c4d6bd0c345ef745f07bbc7a0f0db3826281f6e586a5649d06c30b5f60008054906101000a900460ff166040516102009190610472565b60405180910390a150565b600060ff82169050919050565b6102218161020b565b82525050565b600060208201905061023c6000830184610218565b92915050565b600080fd5b6102508161020b565b811461025b57600080fd5b50565b60008135905061026d81610247565b92915050565b60006020828403121561028957610288610242565b5b60006102978482850161025e565b91505092915050565b7f4e487b7100000000000000000000000000000000000000000000000000000000600052601160045260246000fd5b60006102da8261020b565b9150600082036102ed576102ec6102a0565b5b600182039050919050565b600082825260208201905092915050565b7f4d792076616c7565206973206465637265617365642062792031000000000000600082015250565b600061033f601a836102f8565b915061034a82610309565b602082019050919050565b600060408201905061036a6000830184610218565b818103602083015261037b81610332565b905092915050565b600061038e8261020b565b915060ff82036103a1576103a06102a0565b5b600182019050919050565b7f4d792076616c756520697320696e637265617365642062792031000000000000600082015250565b60006103e2601a836102f8565b91506103ed826103ac565b602082019050919050565b600060408201905061040d6000830184610218565b818103602083015261041e816103d5565b905092915050565b7f4d792076616c7565206973207365742077697468206e65772076616c75650000600082015250565b600061045c601e836102f8565b915061046782610426565b602082019050919050565b60006040820190506104876000830184610218565b81810360208301526104988161044f565b90509291505056fea26469706673582212200fd700278417c59417eda43ca824b78cb9eef98d237a0d1b6c90f1d16b030cc764736f6c634300080d0033",
  "immutableReferences": {},
  "source": "// SPDX-License-Identifier: SEE LICENSE IN LICENSE\r\npragma solidity >=0.8.0;\r\n\r\ncontract HelloEvent {\r\n   uint8 public myValue;\r\n   event Increased(uint8 newValue,string message);\r\n   event Decreased(uint8 newValue,string message);\r\n   event ValueSet(uint8 newValue,string message);\r\n   function increase()  public {\r\n    myValue++;\r\n    emit Increased(myValue,\"My value is increased by 1\");\r\n   }\r\n   function decrease()  public {\r\n    myValue--;\r\n    emit Decreased(myValue,\"My value is decreased by 1\");\r\n   }\r\n   function setvalue(uint8 newValue)  public {\r\n    myValue = newValue;\r\n    emit ValueSet(myValue,\"My value is set with new value\");\r\n   }\r\n \r\n}",
  "sourcePath": "C:\\Users\\GUAGUA\\Documents\\GitHub\\CE-394\\New folder (2)\\contracts\\HelloEvent.sol",
  "compiler": {
    "name": "solc",
    "version": "0.8.13+commit.abaa5c0e.Emscripten.clang"
  },
  "schemaVersion": "3.4.10",
  "updatedAt": "2022-11-21T04:47:54.988Z",
  "devdoc": {
    "kind": "dev",
    "methods": {},
    "version": 1
  },
  "userdoc": {
    "kind": "user",
    "methods": {},
    "version": 1
  }
}