{
  "contractName": "Hello",
  "abi": [
    {
      "inputs": [],
      "name": "myValue",
      "outputs": [
        {
          "internalType": "uint8",
          "name": "",
          "type": "uint8"
        }
      ],
      "stateMutability": "view",
      "type": "function"
    },
    {
      "inputs": [],
      "name": "increase",
      "outputs": [
        {
          "internalType": "uint8",
          "name": "",
          "type": "uint8"
        }
      ],
      "stateMutability": "nonpayable",
      "type": "function"
    },
    {
      "inputs": [],
      "name": "decrease",
      "outputs": [
        {
          "internalType": "uint8",
          "name": "",
          "type": "uint8"
        }
      ],
      "stateMutability": "nonpayable",
      "type": "function"
    },
    {
      "inputs": [
        {
          "internalType": "uint8",
          "name": "newValue",
          "type": "uint8"
        }
      ],
      "name": "setvalue",
      "outputs": [],
      "stateMutability": "nonpayable",
      "type": "function"
    },
    {
      "inputs": [],
      "name": "getvalue",
      "outputs": [
        {
          "internalType": "uint8",
          "name": "",
          "type": "uint8"
        }
      ],
      "stateMutability": "view",
      "type": "function"
    }
  ],
  "bytecode": "0x608060405234801561001057600080fd5b50610318806100206000396000f3fe608060405234801561001057600080fd5b50600436106100575760003560e01c806347f1aae71461005c57806369bd01c41461007a578063d732d95514610098578063e8927fbc146100b6578063fd18e43a146100d4575b600080fd5b6100646100f0565b60405161007191906101e8565b60405180910390f35b610082610101565b60405161008f91906101e8565b60405180910390f35b6100a0610117565b6040516100ad91906101e8565b60405180910390f35b6100be610163565b6040516100cb91906101e8565b60405180910390f35b6100ee60048036038101906100e99190610234565b6101af565b005b60008054906101000a900460ff1681565b60008060009054906101000a900460ff16905090565b600080600081819054906101000a900460ff168092919061013790610290565b91906101000a81548160ff021916908360ff1602179055505060008054906101000a900460ff16905090565b600080600081819054906101000a900460ff1680929190610183906102b9565b91906101000a81548160ff021916908360ff1602179055505060008054906101000a900460ff16905090565b806000806101000a81548160ff021916908360ff16021790555050565b600060ff82169050919050565b6101e2816101cc565b82525050565b60006020820190506101fd60008301846101d9565b92915050565b600080fd5b610211816101cc565b811461021c57600080fd5b50565b60008135905061022e81610208565b92915050565b60006020828403121561024a57610249610203565b5b60006102588482850161021f565b91505092915050565b7f4e487b7100000000000000000000000000000000000000000000000000000000600052601160045260246000fd5b600061029b826101cc565b9150600082036102ae576102ad610261565b5b600182039050919050565b60006102c4826101cc565b915060ff82036102d7576102d6610261565b5b60018201905091905056fea2646970667358221220674fb62bac5c949066e7e74f435bd8db5861e8a39ee53324c8ce7a92180bf18164736f6c634300080d0033",
  "immutableReferences": {},
  "source": "// SPDX-License-Identifier: SEE LICENSE IN LICENSE\r\npragma solidity >=0.8.0;\r\n\r\ncontract Hello {\r\n   uint8 public myValue;\r\n   function increase()  public returns (uint8) {\r\n    myValue++;\r\n    return myValue;\r\n   }\r\n   function decrease()  public returns (uint8) {\r\n    myValue--;\r\n    return myValue;\r\n   }\r\n   function setvalue(uint8 newValue)  public {\r\n    myValue = newValue;\r\n   }\r\n   function getvalue()  public view returns (uint8) {\r\n    return myValue;\r\n   }\r\n}",
  "sourcePath": "C:\\Users\\GUAGUA\\Documents\\GitHub\\CE-394\\New folder (2)\\contracts\\Hello.sol",
  "compiler": {
    "name": "solc",
    "version": "0.8.13+commit.abaa5c0e.Emscripten.clang"
  },
  "schemaVersion": "3.4.10",
  "updatedAt": "2022-11-21T04:47:54.984Z",
  "devdoc": {
    "kind": "dev",
    "methods": {},
    "version": 1
  },
  "userdoc": {
    "kind": "user",
    "methods": {},
    "version": 1
  }
}