{
  "contractName": "HelloEventWithOwner",
  "abi": [
    {
      "anonymous": false,
      "inputs": [
        {
          "indexed": false,
          "internalType": "uint8",
          "name": "newValue",
          "type": "uint8"
        },
        {
          "indexed": false,
          "internalType": "string",
          "name": "message",
          "type": "string"
        }
      ],
      "name": "Decreased",
      "type": "event"
    },
    {
      "anonymous": false,
      "inputs": [
        {
          "indexed": false,
          "internalType": "uint8",
          "name": "newValue",
          "type": "uint8"
        },
        {
          "indexed": false,
          "internalType": "string",
          "name": "message",
          "type": "string"
        }
      ],
      "name": "Increased",
      "type": "event"
    },
    {
      "anonymous": false,
      "inputs": [
        {
          "indexed": true,
          "internalType": "address",
          "name": "oldOwner",
          "type": "address"
        },
        {
          "indexed": true,
          "internalType": "address",
          "name": "newOwner",
          "type": "address"
        }
      ],
      "name": "OwnerSet",
      "type": "event"
    },
    {
      "anonymous": false,
      "inputs": [
        {
          "indexed": false,
          "internalType": "uint8",
          "name": "newValue",
          "type": "uint8"
        },
        {
          "indexed": false,
          "internalType": "string",
          "name": "message",
          "type": "string"
        }
      ],
      "name": "ValueSet",
      "type": "event"
    },
    {
      "inputs": [
        {
          "internalType": "address",
          "name": "newOwner",
          "type": "address"
        }
      ],
      "name": "changeOwner",
      "outputs": [],
      "stateMutability": "nonpayable",
      "type": "function"
    },
    {
      "inputs": [],
      "name": "getOwner",
      "outputs": [
        {
          "internalType": "address",
          "name": "",
          "type": "address"
        }
      ],
      "stateMutability": "view",
      "type": "function"
    },
    {
      "inputs": [],
      "name": "myValue",
      "outputs": [
        {
          "internalType": "uint8",
          "name": "",
          "type": "uint8"
        }
      ],
      "stateMutability": "view",
      "type": "function"
    },
    {
      "inputs": [],
      "name": "increase",
      "outputs": [],
      "stateMutability": "nonpayable",
      "type": "function"
    },
    {
      "inputs": [],
      "name": "decrease",
      "outputs": [],
      "stateMutability": "nonpayable",
      "type": "function"
    },
    {
      "inputs": [
        {
          "internalType": "uint8",
          "name": "newValue",
          "type": "uint8"
        }
      ],
      "name": "setvalue",
      "outputs": [],
      "stateMutability": "nonpayable",
      "type": "function"
    }
  ],
  "bytecode": "0x608060405234801561001057600080fd5b50336000806101000a81548173ffffffffffffffffffffffffffffffffffffffff021916908373ffffffffffffffffffffffffffffffffffffffff16021790555060008054906101000a900473ffffffffffffffffffffffffffffffffffffffff1673ffffffffffffffffffffffffffffffffffffffff16600073ffffffffffffffffffffffffffffffffffffffff167f342827c97908e5e2f71151c08502a66d44b6f758e3ac2f1de95f02eb95f0a73560405160405180910390a3610854806100db6000396000f3fe608060405234801561001057600080fd5b50600436106100625760003560e01c806347f1aae714610067578063893d20e814610085578063a6f9dae1146100a3578063d732d955146100bf578063e8927fbc146100c9578063fd18e43a146100d3575b600080fd5b61006f6100ef565b60405161007c9190610484565b60405180910390f35b61008d610102565b60405161009a91906104e0565b60405180910390f35b6100bd60048036038101906100b8919061052c565b61012b565b005b6100c7610276565b005b6100d16102f6565b005b6100ed60048036038101906100e89190610585565b610376565b005b600060149054906101000a900460ff1681565b60008060009054906101000a900473ffffffffffffffffffffffffffffffffffffffff16905090565b60008054906101000a900473ffffffffffffffffffffffffffffffffffffffff1673ffffffffffffffffffffffffffffffffffffffff163373ffffffffffffffffffffffffffffffffffffffff16146101b9576040517f08c379a00000000000000000000000000000000000000000000000000000000081526004016101b09061060f565b60405180910390fd5b8073ffffffffffffffffffffffffffffffffffffffff1660008054906101000a900473ffffffffffffffffffffffffffffffffffffffff1673ffffffffffffffffffffffffffffffffffffffff167f342827c97908e5e2f71151c08502a66d44b6f758e3ac2f1de95f02eb95f0a73560405160405180910390a3806000806101000a81548173ffffffffffffffffffffffffffffffffffffffff021916908373ffffffffffffffffffffffffffffffffffffffff16021790555050565b6000601481819054906101000a900460ff16809291906102959061065e565b91906101000a81548160ff021916908360ff160217905550507f21631358afc61f309292f11fd94dfb9920e062af5a72ed779d02fc80cadaabe4600060149054906101000a900460ff166040516102ec91906106d3565b60405180910390a1565b6000601481819054906101000a900460ff168092919061031590610701565b91906101000a81548160ff021916908360ff160217905550507f59144c42d01925194e77b7b7295ac04f0b740b4190cd10bb328eb8b8e0b58af6600060149054906101000a900460ff1660405161036c9190610776565b60405180910390a1565b60008054906101000a900473ffffffffffffffffffffffffffffffffffffffff1673ffffffffffffffffffffffffffffffffffffffff163373ffffffffffffffffffffffffffffffffffffffff1614610404576040517f08c379a00000000000000000000000000000000000000000000000000000000081526004016103fb9061060f565b60405180910390fd5b80600060146101000a81548160ff021916908360ff1602179055507f71fe9ce4c4d6bd0c345ef745f07bbc7a0f0db3826281f6e586a5649d06c30b5f600060149054906101000a900460ff1660405161045d91906107f0565b60405180910390a150565b600060ff82169050919050565b61047e81610468565b82525050565b60006020820190506104996000830184610475565b92915050565b600073ffffffffffffffffffffffffffffffffffffffff82169050919050565b60006104ca8261049f565b9050919050565b6104da816104bf565b82525050565b60006020820190506104f560008301846104d1565b92915050565b600080fd5b610509816104bf565b811461051457600080fd5b50565b60008135905061052681610500565b92915050565b600060208284031215610542576105416104fb565b5b600061055084828501610517565b91505092915050565b61056281610468565b811461056d57600080fd5b50565b60008135905061057f81610559565b92915050565b60006020828403121561059b5761059a6104fb565b5b60006105a984828501610570565b91505092915050565b600082825260208201905092915050565b7f43616c6c6572206973206e6f74206f776e657200000000000000000000000000600082015250565b60006105f96013836105b2565b9150610604826105c3565b602082019050919050565b60006020820190508181036000830152610628816105ec565b9050919050565b7f4e487b7100000000000000000000000000000000000000000000000000000000600052601160045260246000fd5b600061066982610468565b91506000820361067c5761067b61062f565b5b600182039050919050565b7f4d792076616c7565206973206465637265617365642062792031000000000000600082015250565b60006106bd601a836105b2565b91506106c882610687565b602082019050919050565b60006040820190506106e86000830184610475565b81810360208301526106f9816106b0565b905092915050565b600061070c82610468565b915060ff820361071f5761071e61062f565b5b600182019050919050565b7f4d792076616c756520697320696e637265617365642062792031000000000000600082015250565b6000610760601a836105b2565b915061076b8261072a565b602082019050919050565b600060408201905061078b6000830184610475565b818103602083015261079c81610753565b905092915050565b7f4d792076616c7565206973207365742077697468206e65772076616c75650000600082015250565b60006107da601e836105b2565b91506107e5826107a4565b602082019050919050565b60006040820190506108056000830184610475565b8181036020830152610816816107cd565b90509291505056fea2646970667358221220d9d82b07fbc5e5670b8a2ac77e94b8f02c7c842f1d5044f961d6a4a6d5f81dc064736f6c634300080d0033",
  "immutableReferences": {},
  "source": "// SPDX-License-Identifier: SEE LICENSE IN LICENSE\r\npragma solidity >=0.8.0;\r\nimport \"./Ownable.sol\";\r\ncontract HelloEventWithOwner is Ownable {\r\n   uint8 public myValue;\r\n   event Increased(uint8 newValue,string message);\r\n   event Decreased(uint8 newValue,string message);\r\n   event ValueSet(uint8 newValue,string message);\r\n   function increase()  public {\r\n    myValue++;\r\n    emit Increased(myValue,\"My value is increased by 1\");\r\n   }\r\n   function decrease()  public {\r\n    myValue--;\r\n    emit Decreased(myValue,\"My value is decreased by 1\");\r\n   }\r\n   function setvalue(uint8 newValue)  public isOwner {\r\n    myValue = newValue;\r\n    emit ValueSet(myValue,\"My value is set with new value\");\r\n   }\r\n \r\n}",
  "sourcePath": "C:\\Users\\GUAGUA\\Documents\\GitHub\\CE-394\\New folder (2)\\contracts\\HelloEventWithOwner.sol",
  "compiler": {
    "name": "solc",
    "version": "0.8.13+commit.abaa5c0e.Emscripten.clang"
  },
  "schemaVersion": "3.4.10",
  "updatedAt": "2022-11-21T04:47:54.994Z",
  "devdoc": {
    "kind": "dev",
    "methods": {},
    "version": 1
  },
  "userdoc": {
    "kind": "user",
    "methods": {},
    "version": 1
  }
}