{
  "contractName": "SimpleLoan",
  "abi": [
    {
      "inputs": [],
      "stateMutability": "nonpayable",
      "type": "constructor"
    },
    {
      "anonymous": false,
      "inputs": [
        {
          "indexed": false,
          "internalType": "uint256",
          "name": "time",
          "type": "uint256"
        },
        {
          "indexed": false,
          "internalType": "uint256",
          "name": "amount",
          "type": "uint256"
        },
        {
          "indexed": false,
          "internalType": "uint256",
          "name": "interest",
          "type": "uint256"
        },
        {
          "indexed": false,
          "internalType": "address",
          "name": "borrower",
          "type": "address"
        }
      ],
      "name": "Borrowed",
      "type": "event"
    },
    {
      "anonymous": false,
      "inputs": [
        {
          "indexed": false,
          "internalType": "uint256",
          "name": "time",
          "type": "uint256"
        }
      ],
      "name": "CloseDown",
      "type": "event"
    },
    {
      "anonymous": false,
      "inputs": [
        {
          "indexed": false,
          "internalType": "uint256",
          "name": "time",
          "type": "uint256"
        },
        {
          "indexed": false,
          "internalType": "address",
          "name": "borrower",
          "type": "address"
        }
      ],
      "name": "DebtCleared",
      "type": "event"
    },
    {
      "anonymous": false,
      "inputs": [
        {
          "indexed": false,
          "internalType": "uint256",
          "name": "time",
          "type": "uint256"
        },
        {
          "indexed": false,
          "internalType": "uint256",
          "name": "amount",
          "type": "uint256"
        },
        {
          "indexed": false,
          "internalType": "uint256",
          "name": "balance",
          "type": "uint256"
        }
      ],
      "name": "Deposited",
      "type": "event"
    },
    {
      "anonymous": false,
      "inputs": [
        {
          "indexed": false,
          "internalType": "uint256",
          "name": "time",
          "type": "uint256"
        },
        {
          "indexed": false,
          "internalType": "uint256",
          "name": "amount",
          "type": "uint256"
        },
        {
          "indexed": false,
          "internalType": "uint256",
          "name": "remaining",
          "type": "uint256"
        },
        {
          "indexed": false,
          "internalType": "address",
          "name": "borrower",
          "type": "address"
        },
        {
          "indexed": false,
          "internalType": "uint256",
          "name": "period",
          "type": "uint256"
        }
      ],
      "name": "LatePaybacked",
      "type": "event"
    },
    {
      "anonymous": false,
      "inputs": [
        {
          "indexed": false,
          "internalType": "uint256",
          "name": "time",
          "type": "uint256"
        },
        {
          "indexed": false,
          "internalType": "uint256",
          "name": "amount",
          "type": "uint256"
        },
        {
          "indexed": false,
          "internalType": "uint256",
          "name": "remaining",
          "type": "uint256"
        },
        {
          "indexed": false,
          "internalType": "address",
          "name": "borrower",
          "type": "address"
        }
      ],
      "name": "Paybacked",
      "type": "event"
    },
    {
      "anonymous": false,
      "inputs": [
        {
          "indexed": false,
          "internalType": "uint256",
          "name": "time",
          "type": "uint256"
        },
        {
          "indexed": false,
          "internalType": "uint256",
          "name": "amount",
          "type": "uint256"
        }
      ],
      "name": "Withdraw",
      "type": "event"
    },
    {
      "anonymous": false,
      "inputs": [
        {
          "indexed": false,
          "internalType": "uint256",
          "name": "time",
          "type": "uint256"
        },
        {
          "indexed": false,
          "internalType": "uint256",
          "name": "newRate",
          "type": "uint256"
        }
      ],
      "name": "interestRateChanged",
      "type": "event"
    },
    {
      "inputs": [],
      "name": "DEFAUL_INTEREST_DENOMINATOR",
      "outputs": [
        {
          "internalType": "uint256",
          "name": "",
          "type": "uint256"
        }
      ],
      "stateMutability": "view",
      "type": "function",
      "constant": true
    },
    {
      "inputs": [],
      "name": "DEFAUL_INTEREST_NUMERATOR",
      "outputs": [
        {
          "internalType": "uint256",
          "name": "",
          "type": "uint256"
        }
      ],
      "stateMutability": "view",
      "type": "function",
      "constant": true
    },
    {
      "inputs": [],
      "name": "PAYBACK_PERIOD",
      "outputs": [
        {
          "internalType": "uint256",
          "name": "",
          "type": "uint256"
        }
      ],
      "stateMutability": "view",
      "type": "function",
      "constant": true
    },
    {
      "inputs": [
        {
          "internalType": "uint256",
          "name": "",
          "type": "uint256"
        }
      ],
      "name": "borrowers",
      "outputs": [
        {
          "internalType": "address",
          "name": "",
          "type": "address"
        }
      ],
      "stateMutability": "view",
      "type": "function",
      "constant": true
    },
    {
      "inputs": [
        {
          "internalType": "address",
          "name": "",
          "type": "address"
        }
      ],
      "name": "debts",
      "outputs": [
        {
          "internalType": "uint256",
          "name": "balance",
          "type": "uint256"
        },
        {
          "internalType": "uint256",
          "name": "lastBorrowed",
          "type": "uint256"
        }
      ],
      "stateMutability": "view",
      "type": "function",
      "constant": true
    },
    {
      "inputs": [],
      "name": "interestRateDenominator",
      "outputs": [
        {
          "internalType": "uint256",
          "name": "",
          "type": "uint256"
        }
      ],
      "stateMutability": "view",
      "type": "function",
      "constant": true
    },
    {
      "inputs": [],
      "name": "interestRateNumerator",
      "outputs": [
        {
          "internalType": "uint256",
          "name": "",
          "type": "uint256"
        }
      ],
      "stateMutability": "view",
      "type": "function",
      "constant": true
    },
    {
      "inputs": [],
      "name": "getBorrowers",
      "outputs": [
        {
          "internalType": "address[]",
          "name": "",
          "type": "address[]"
        }
      ],
      "stateMutability": "view",
      "type": "function",
      "constant": true
    },
    {
      "inputs": [
        {
          "internalType": "address",
          "name": "borrower",
          "type": "address"
        }
      ],
      "name": "getDebts",
      "outputs": [
        {
          "internalType": "uint256",
          "name": "",
          "type": "uint256"
        }
      ],
      "stateMutability": "view",
      "type": "function",
      "constant": true
    },
    {
      "inputs": [],
      "name": "deposit",
      "outputs": [],
      "stateMutability": "payable",
      "type": "function",
      "payable": true
    },
    {
      "inputs": [
        {
          "internalType": "uint256",
          "name": "numerator",
          "type": "uint256"
        }
      ],
      "name": "setInterestRate",
      "outputs": [],
      "stateMutability": "nonpayable",
      "type": "function"
    },
    {
      "inputs": [
        {
          "internalType": "uint256",
          "name": "amount",
          "type": "uint256"
        }
      ],
      "name": "borrow",
      "outputs": [],
      "stateMutability": "nonpayable",
      "type": "function"
    },
    {
      "inputs": [],
      "name": "payBack",
      "outputs": [],
      "stateMutability": "payable",
      "type": "function",
      "payable": true
    },
    {
      "inputs": [
        {
          "internalType": "uint256",
          "name": "amount",
          "type": "uint256"
        }
      ],
      "name": "withdraw",
      "outputs": [],
      "stateMutability": "nonpayable",
      "type": "function"
    },
    {
      "inputs": [],
      "name": "closeDown",
      "outputs": [],
      "stateMutability": "nonpayable",
      "type": "function"
    }
  ],
  "bytecode": "0x608060405234801561001057600080fd5b50336000806101000a81548173ffffffffffffffffffffffffffffffffffffffff021916908373ffffffffffffffffffffffffffffffffffffffff1602179055506001600281905550600a6003819055506001600560006101000a81548160ff021916908315150217905550611b808061008b6000396000f3fe6080604052600436106100e85760003560e01c80635f84f3021161008a578063c5ebeaec11610059578063c5ebeaec146102c4578063d0e30db0146102ed578063e96069d5146102f7578063ff910f3f14610322576100e8565b80635f84f302146101f65780636854786a1461021f5780637924d93f1461024a578063bcd1e5f914610287576100e8565b80632ecd4e7d116100c65780632ecd4e7d1461014b5780634ea977331461018957806355ffe2a0146101b45780635a4362e5146101df576100e8565b8063019f64cc146100ed5780631c00d1c2146100f75780632e1a7d4d14610122575b600080fd5b6100f561034d565b005b34801561010357600080fd5b5061010c610874565b6040516101199190611372565b60405180910390f35b34801561012e57600080fd5b50610149600480360381019061014491906113be565b61087b565b005b34801561015757600080fd5b50610172600480360381019061016d9190611449565b610a3e565b604051610180929190611476565b60405180910390f35b34801561019557600080fd5b5061019e610a62565b6040516101ab9190611372565b60405180910390f35b3480156101c057600080fd5b506101c9610a67565b6040516101d69190611372565b60405180910390f35b3480156101eb57600080fd5b506101f4610a6d565b005b34801561020257600080fd5b5061021d600480360381019061021891906113be565b610c1d565b005b34801561022b57600080fd5b50610234610d88565b604051610241919061155d565b60405180910390f35b34801561025657600080fd5b50610271600480360381019061026c91906113be565b610e16565b60405161027e919061158e565b60405180910390f35b34801561029357600080fd5b506102ae60048036038101906102a99190611449565b610e55565b6040516102bb9190611372565b60405180910390f35b3480156102d057600080fd5b506102eb60048036038101906102e691906113be565b610ea1565b005b6102f5611234565b005b34801561030357600080fd5b5061030c61134e565b6040516103199190611372565b60405180910390f35b34801561032e57600080fd5b50610337611354565b6040516103449190611372565b60405180910390f35b60008054906101000a900473ffffffffffffffffffffffffffffffffffffffff1673ffffffffffffffffffffffffffffffffffffffff163373ffffffffffffffffffffffffffffffffffffffff16036103db576040517f08c379a00000000000000000000000000000000000000000000000000000000081526004016103d290611606565b60405180910390fd5b600560009054906101000a900460ff1661042a576040517f08c379a000000000000000000000000000000000000000000000000000000000815260040161042190611672565b60405180910390fd5b600160003373ffffffffffffffffffffffffffffffffffffffff1673ffffffffffffffffffffffffffffffffffffffff168152602001908152602001600020600001543411156104af576040517f08c379a00000000000000000000000000000000000000000000000000000000081526004016104a6906116de565b60405180910390fd5b34600160003373ffffffffffffffffffffffffffffffffffffffff1673ffffffffffffffffffffffffffffffffffffffff1681526020019081526020016000206000016000828254610501919061172d565b9250508190555062093a80600160003373ffffffffffffffffffffffffffffffffffffffff1673ffffffffffffffffffffffffffffffffffffffff168152602001908152602001600020600101544261055a919061172d565b10156105e4577f01cc4a5b4b7296e86c48d414286509d7cd8c31131f816dcd54164066421fd36f4234600160003373ffffffffffffffffffffffffffffffffffffffff1673ffffffffffffffffffffffffffffffffffffffff16815260200190815260200160002060000154336040516105d79493929190611761565b60405180910390a16106c1565b7fb03fae49188cc9ffc931e7694517894fc83fbf44cb6dc766b2dbeacde71f8c504234600160003373ffffffffffffffffffffffffffffffffffffffff1673ffffffffffffffffffffffffffffffffffffffff168152602001908152602001600020600001543362093a80600160003373ffffffffffffffffffffffffffffffffffffffff1673ffffffffffffffffffffffffffffffffffffffff168152602001908152602001600020600101544261069d919061172d565b6106a7919061172d565b6040516106b89594939291906117a6565b60405180910390a15b6000600160003373ffffffffffffffffffffffffffffffffffffffff1673ffffffffffffffffffffffffffffffffffffffff16815260200190815260200160002060000154036108725760005b600480549050811015610870573373ffffffffffffffffffffffffffffffffffffffff1660048281548110610746576107456117f9565b5b9060005260206000200160009054906101000a900473ffffffffffffffffffffffffffffffffffffffff1673ffffffffffffffffffffffffffffffffffffffff160361085d57600481815481106107a05761079f6117f9565b5b9060005260206000200160006101000a81549073ffffffffffffffffffffffffffffffffffffffff0219169055600160003373ffffffffffffffffffffffffffffffffffffffff1673ffffffffffffffffffffffffffffffffffffffff168152602001908152602001600020600080820160009055600182016000905550507f2ef4d4a343c4e0bf5bebe0d1900f23c1cf439484b3d1e4ad220f636ce3e7f65d4233604051610850929190611828565b60405180910390a1610870565b808061086890611851565b91505061070e565b505b565b62093a8081565b60008054906101000a900473ffffffffffffffffffffffffffffffffffffffff1673ffffffffffffffffffffffffffffffffffffffff163373ffffffffffffffffffffffffffffffffffffffff1614610909576040517f08c379a000000000000000000000000000000000000000000000000000000000815260040161090090611672565b60405180910390fd5b600560009054906101000a900460ff16610958576040517f08c379a000000000000000000000000000000000000000000000000000000000815260040161094f90611672565b60405180910390fd5b4781111561099b576040517f08c379a0000000000000000000000000000000000000000000000000000000008152600401610992906118e5565b60405180910390fd5b60008054906101000a900473ffffffffffffffffffffffffffffffffffffffff1673ffffffffffffffffffffffffffffffffffffffff166108fc829081150290604051600060405180830381858888f19350505050158015610a01573d6000803e3d6000fd5b507f56ca301a9219608c91e7bcee90e083c19671d2cdcc96752c7af291cee5f9c8c84282604051610a33929190611476565b60405180910390a150565b60016020528060005260406000206000915090508060000154908060010154905082565b600181565b60035481565b60008054906101000a900473ffffffffffffffffffffffffffffffffffffffff1673ffffffffffffffffffffffffffffffffffffffff163373ffffffffffffffffffffffffffffffffffffffff1614610afb576040517f08c379a0000000000000000000000000000000000000000000000000000000008152600401610af290611672565b60405180910390fd5b600560009054906101000a900460ff16610b4a576040517f08c379a0000000000000000000000000000000000000000000000000000000008152600401610b4190611672565b60405180910390fd5b600060048054905014610b92576040517f08c379a0000000000000000000000000000000000000000000000000000000008152600401610b8990611977565b60405180910390fd5b7f3ef424e4c7396cd0987b638ceb4fd97726937a2a745143be60611ecc5262f28342604051610bc19190611372565b60405180910390a16000600560006101000a81548160ff02191690831515021790555060008054906101000a900473ffffffffffffffffffffffffffffffffffffffff1673ffffffffffffffffffffffffffffffffffffffff16ff5b60008054906101000a900473ffffffffffffffffffffffffffffffffffffffff1673ffffffffffffffffffffffffffffffffffffffff163373ffffffffffffffffffffffffffffffffffffffff1614610cab576040517f08c379a0000000000000000000000000000000000000000000000000000000008152600401610ca290611672565b60405180910390fd5b600560009054906101000a900460ff16610cfa576040517f08c379a0000000000000000000000000000000000000000000000000000000008152600401610cf190611672565b60405180910390fd5b60008111610d3d576040517f08c379a0000000000000000000000000000000000000000000000000000000008152600401610d34906119e3565b60405180910390fd5b8060028190555060646003819055507f86302cac7d0f4b5a7e3f40b991a03b58fa5e3225f16bbbb9bd19012d08470ceb4282604051610d7d929190611476565b60405180910390a150565b60606004805480602002602001604051908101604052809291908181526020018280548015610e0c57602002820191906000526020600020905b8160009054906101000a900473ffffffffffffffffffffffffffffffffffffffff1673ffffffffffffffffffffffffffffffffffffffff1681526020019060010190808311610dc2575b5050505050905090565b60048181548110610e2657600080fd5b906000526020600020016000915054906101000a900473ffffffffffffffffffffffffffffffffffffffff1681565b6000600160008373ffffffffffffffffffffffffffffffffffffffff1673ffffffffffffffffffffffffffffffffffffffff168152602001908152602001600020600001549050919050565b60008054906101000a900473ffffffffffffffffffffffffffffffffffffffff1673ffffffffffffffffffffffffffffffffffffffff163373ffffffffffffffffffffffffffffffffffffffff1603610f2f576040517f08c379a0000000000000000000000000000000000000000000000000000000008152600401610f2690611606565b60405180910390fd5b600560009054906101000a900460ff16610f7e576040517f08c379a0000000000000000000000000000000000000000000000000000000008152600401610f7590611672565b60405180910390fd5b80471015610fc1576040517f08c379a0000000000000000000000000000000000000000000000000000000008152600401610fb8906118e5565b60405180910390fd5b600060035460025483610fd49190611a03565b610fde9190611a8c565b905060008183610fee9190611abd565b90506000600160003373ffffffffffffffffffffffffffffffffffffffff1673ffffffffffffffffffffffffffffffffffffffff168152602001908152602001600020600001540361110b576004339080600181540180825580915050600190039060005260206000200160009091909190916101000a81548173ffffffffffffffffffffffffffffffffffffffff021916908373ffffffffffffffffffffffffffffffffffffffff1602179055506040518060400160405280600081526020016000815250600160003373ffffffffffffffffffffffffffffffffffffffff1673ffffffffffffffffffffffffffffffffffffffff16815260200190815260200160002060008201518160000155602082015181600101559050505b80600160003373ffffffffffffffffffffffffffffffffffffffff1673ffffffffffffffffffffffffffffffffffffffff168152602001908152602001600020600001600082825461115d9190611abd565b9250508190555042600160003373ffffffffffffffffffffffffffffffffffffffff1673ffffffffffffffffffffffffffffffffffffffff168152602001908152602001600020600101819055503373ffffffffffffffffffffffffffffffffffffffff166108fc849081150290604051600060405180830381858888f193505050501580156111f1573d6000803e3d6000fd5b507ff163e724c8c911d5c1534a78dd7ea6cfe7417aceb6db4bc97f752ce7e8c1b147428484336040516112279493929190611761565b60405180910390a1505050565b60008054906101000a900473ffffffffffffffffffffffffffffffffffffffff1673ffffffffffffffffffffffffffffffffffffffff163373ffffffffffffffffffffffffffffffffffffffff16146112c2576040517f08c379a00000000000000000000000000000000000000000000000000000000081526004016112b990611672565b60405180910390fd5b600560009054906101000a900460ff16611311576040517f08c379a000000000000000000000000000000000000000000000000000000000815260040161130890611672565b60405180910390fd5b7f1ca606821992e3b34613b5b29c0bbade3a907b2969d7f9f2927f726fa4baccfb42344760405161134493929190611b13565b60405180910390a1565b60025481565b600a81565b6000819050919050565b61136c81611359565b82525050565b60006020820190506113876000830184611363565b92915050565b600080fd5b61139b81611359565b81146113a657600080fd5b50565b6000813590506113b881611392565b92915050565b6000602082840312156113d4576113d361138d565b5b60006113e2848285016113a9565b91505092915050565b600073ffffffffffffffffffffffffffffffffffffffff82169050919050565b6000611416826113eb565b9050919050565b6114268161140b565b811461143157600080fd5b50565b6000813590506114438161141d565b92915050565b60006020828403121561145f5761145e61138d565b5b600061146d84828501611434565b91505092915050565b600060408201905061148b6000830185611363565b6114986020830184611363565b9392505050565b600081519050919050565b600082825260208201905092915050565b6000819050602082019050919050565b6114d48161140b565b82525050565b60006114e683836114cb565b60208301905092915050565b6000602082019050919050565b600061150a8261149f565b61151481856114aa565b935061151f836114bb565b8060005b8381101561155057815161153788826114da565b9750611542836114f2565b925050600181019050611523565b5085935050505092915050565b6000602082019050818103600083015261157781846114ff565b905092915050565b6115888161140b565b82525050565b60006020820190506115a3600083018461157f565b92915050565b600082825260208201905092915050565b7f4f776e6572206e6f7420616c6c6f776564000000000000000000000000000000600082015250565b60006115f06011836115a9565b91506115fb826115ba565b602082019050919050565b6000602082019050818103600083015261161f816115e3565b9050919050565b7f4f6e6c79206f776e657220616c6c6f7765640000000000000000000000000000600082015250565b600061165c6012836115a9565b915061166782611626565b602082019050919050565b6000602082019050818103600083015261168b8161164f565b9050919050565b7f4f7665727061696420616c6c6f77656400000000000000000000000000000000600082015250565b60006116c86010836115a9565b91506116d382611692565b602082019050919050565b600060208201905081810360008301526116f7816116bb565b9050919050565b7f4e487b7100000000000000000000000000000000000000000000000000000000600052601160045260246000fd5b600061173882611359565b915061174383611359565b925082821015611756576117556116fe565b5b828203905092915050565b60006080820190506117766000830187611363565b6117836020830186611363565b6117906040830185611363565b61179d606083018461157f565b95945050505050565b600060a0820190506117bb6000830188611363565b6117c86020830187611363565b6117d56040830186611363565b6117e2606083018561157f565b6117ef6080830184611363565b9695505050505050565b7f4e487b7100000000000000000000000000000000000000000000000000000000600052603260045260246000fd5b600060408201905061183d6000830185611363565b61184a602083018461157f565b9392505050565b600061185c82611359565b91507fffffffffffffffffffffffffffffffffffffffffffffffffffffffffffffffff820361188e5761188d6116fe565b5b600182019050919050565b7f4e6f7420656e6f7567682062616c616e63650000000000000000000000000000600082015250565b60006118cf6012836115a9565b91506118da82611899565b602082019050919050565b600060208201905081810360008301526118fe816118c2565b9050919050565b7f43616e206e6f7420636c6f736520647565206578697374696e6720626f72726f60008201527f7765727300000000000000000000000000000000000000000000000000000000602082015250565b60006119616024836115a9565b915061196c82611905565b604082019050919050565b6000602082019050818103600083015261199081611954565b9050919050565b7f496e76616c696420696e74657265737420726174650000000000000000000000600082015250565b60006119cd6015836115a9565b91506119d882611997565b602082019050919050565b600060208201905081810360008301526119fc816119c0565b9050919050565b6000611a0e82611359565b9150611a1983611359565b9250817fffffffffffffffffffffffffffffffffffffffffffffffffffffffffffffffff0483118215151615611a5257611a516116fe565b5b828202905092915050565b7f4e487b7100000000000000000000000000000000000000000000000000000000600052601260045260246000fd5b6000611a9782611359565b9150611aa283611359565b925082611ab257611ab1611a5d565b5b828204905092915050565b6000611ac882611359565b9150611ad383611359565b9250827fffffffffffffffffffffffffffffffffffffffffffffffffffffffffffffffff03821115611b0857611b076116fe565b5b828201905092915050565b6000606082019050611b286000830186611363565b611b356020830185611363565b611b426040830184611363565b94935050505056fea2646970667358221220fecb3df5410b430d7c4663540796b3ac71ac7fc11aa9d77b512a9b16d673d5b564736f6c634300080d0033",
  "immutableReferences": {},
  "source": "// SPDX-License-Identifier: SEE LICENSE IN LICENSE\r\npragma solidity >=0.8.0;\r\n\r\n\r\ncontract SimpleLoan {\r\n    address payable owner;\r\n    struct DebtInfo {\r\n        uint balance;\r\n        uint lastBorrowed;\r\n    }\r\n    mapping (address => DebtInfo) public debts;\r\n    uint public interestRateNumerator;\r\n    uint public interestRateDenominator;\r\n    uint public constant DEFAUL_INTEREST_NUMERATOR = 1;\r\n    uint public constant DEFAUL_INTEREST_DENOMINATOR = 10;\r\n    uint public constant PAYBACK_PERIOD = 60 * 60 * 24 * 7;\r\n\r\n    address[] public borrowers;\r\n    bool active;\r\n\r\n    constructor(){\r\n        owner = payable(msg.sender);\r\n        interestRateNumerator = DEFAUL_INTEREST_NUMERATOR;\r\n        interestRateDenominator = DEFAUL_INTEREST_DENOMINATOR;\r\n        active = true;\r\n    }\r\n\r\n    modifier onlyOwneer {\r\n        require(msg.sender == owner,\"Only owner allowed\");\r\n        _;\r\n    }\r\n\r\n    modifier notAnOwneer {\r\n        require(msg.sender != owner,\"Owner not allowed\");\r\n        _;\r\n    }\r\n\r\n    modifier whenActive {\r\n        require(active,\"Only owner allowed\");\r\n        _;\r\n    }\r\n\r\n    function getBorrowers() public view  returns (address[] memory) {\r\n        return borrowers;\r\n    }\r\n\r\n    function getDebts(address borrower) public view returns(uint){\r\n        return debts[borrower].balance;\r\n    }\r\n\r\n    event Deposited(uint time,uint amount, uint balance);\r\n    function deposit() public payable onlyOwneer whenActive{\r\n        emit Deposited(block.timestamp,msg.value,\r\n            address(this).balance);\r\n    }\r\n\r\n    event interestRateChanged(uint time,uint newRate);\r\n    function setInterestRate(uint numerator) public onlyOwneer whenActive {\r\n        require (numerator > 0 , \"Invalid interest rate\");\r\n        interestRateNumerator = numerator;\r\n        interestRateDenominator = 100;\r\n        emit interestRateChanged(block.timestamp,numerator);\r\n    }\r\n\r\n    event Borrowed(uint time,uint amount,uint interest,address borrower);\r\n    function borrow(uint amount) external notAnOwneer whenActive {\r\n        require(address(this).balance >= amount ,\"Not enough balance\");\r\n        uint interest = (amount * interestRateNumerator / interestRateDenominator );\r\n        uint debt = amount + interest;\r\n        if(debts[msg.sender].balance == 0){\r\n            borrowers.push(msg.sender);\r\n            debts[msg.sender] = DebtInfo(0,0);\r\n        }\r\n        debts[msg.sender].balance += debt;\r\n        debts[msg.sender].lastBorrowed = block.timestamp;\r\n        payable(msg.sender).transfer(amount);\r\n        emit Borrowed(block.timestamp, amount ,interest,msg.sender);\r\n    }\r\n\r\n    event Paybacked (uint time,uint amount ,uint remaining,address borrower);\r\n    event LatePaybacked (uint time,uint amount ,uint remaining,address borrower ,uint period);\r\n    event DebtCleared (uint time,address borrower);\r\n    function payBack()external payable notAnOwneer whenActive {\r\n        require (msg.value <= debts[msg.sender].balance,\"Overpaid allowed\");\r\n        debts[msg.sender].balance -= msg.value;\r\n        if(block.timestamp - debts[msg.sender].lastBorrowed < PAYBACK_PERIOD) {\r\n            emit Paybacked(block.timestamp ,msg.value,debts[msg.sender].balance,msg.sender);\r\n        } else {\r\n            emit LatePaybacked(block.timestamp ,msg.value,debts[msg.sender].balance,msg.sender,\r\n                block.timestamp - debts[msg.sender].lastBorrowed - PAYBACK_PERIOD);\r\n        }\r\n        if(debts[msg.sender].balance == 0) {\r\n            for (uint i = 0; i < borrowers.length; i++) {\r\n                if(borrowers[i]==msg.sender)\r\n                {\r\n                    delete borrowers[i];\r\n                    delete debts[msg.sender];\r\n                    emit DebtCleared(block.timestamp,msg.sender);\r\n                    break;\r\n                }\r\n              \r\n            }\r\n        }\r\n    }\r\n\r\n    event Withdraw (uint time,uint amount);\r\n    function withdraw(uint amount) external onlyOwneer whenActive{\r\n        require(amount <= address(this).balance, \"Not enough balance\");\r\n        owner.transfer(amount);\r\n        emit Withdraw(block.timestamp,amount);\r\n    }\r\n\r\n    event CloseDown(uint time);\r\n    function closeDown() external onlyOwneer whenActive{\r\n        require (borrowers.length == 0,\"Can not close due existing borrowers\");\r\n        emit CloseDown(block.timestamp);\r\n        active = false;\r\n        selfdestruct(owner);\r\n    }\r\n}\r\n",
  "sourcePath": "C:\\Users\\GUAGUA\\Documents\\GitHub\\CE-394\\New folder (2)\\contracts\\simpleLoan.sol",
  "compiler": {
    "name": "solc",
    "version": "0.8.13+commit.abaa5c0e.Emscripten.clang"
  },
  "schemaVersion": "3.4.10",
  "updatedAt": "2022-11-21T04:48:06.750Z",
  "networkType": "ethereum",
  "devdoc": {
    "kind": "dev",
    "methods": {},
    "version": 1
  },
  "userdoc": {
    "kind": "user",
    "methods": {},
    "version": 1
  }
}